00COTAHIST.2017BOVESPA 20171124                                                                                                                                                                                                                      
012017112402AALR3       010ALLIAR      ON      NM   R$  000000000157000000000015950000000001558000000000158300000000015950000000001595000000000160000308000000000000145500000000000230356200000000000000009999123100000010000000000000BRAALRACNOR6100
012017112496AALR3F      020ALLIAR      ON      NM   R$  000000000165300000000016530000000001546000000000162700000000015630000000001552000000000160200009000000000000000168000000000000273491000000000000009999123100000010000000000000BRAALRACNOR6100
012017112402AAPL34      010APPLE       DRN          R$  000000000566500000000056650000000005632000000000563700000000056620000000005537000000000576300004000000000000002700000000000015220600000000000000009999123100000010000000000000BRAAPLBDR004123
012017112496AAPL34F     020APPLE       DRN          R$  000000000590000000000059000000000005900000000000590000000000059000000000004107000000000589900003000000000000000022000000000000129800000000000000009999123100000010000000000000BRAAPLBDR004123
012017112402ABCB4       010ABC BRASIL  PN      N2   R$  000000000168300000000016830000000001650000000000165700000000016600000000001655000000000166001251000000000000745000000000001234762300000000000000009999123100000010000000000000BRABCBACNPR4128
012017112496ABCB4F      020ABC BRASIL  PN      N2   R$  000000000167000000000016750000000001652000000000166700000000016690000000001665000000000166900032000000000000000901000000000001502715000000000000009999123100000010000000000000BRABCBACNPR4128
012017112462ABCB4T      030ABC BRASIL  PN      N2017R$  000000000166400000000016650000000001664000000000166400000000016650000000000000000000000000000002000000000000006000000000000009984808000000000000009999123100000010000000000000BRABCBACNPR4128
012017112412ABCP11      010FII ABC IMOBCI           R$  000000000160000000000016200000000001600000000000160800000000016200000000001611000000000162000240000000000000029775000000000047879372000000000000009999123100000010000000000000BRABCPCTF000265
012017112402ABEV3       010AMBEV S/A   ON           R$  000000000206600000000020740000000002052000000000206600000000020620000000002062000000000206610651000000000004749100000000009811831600000000000000009999123100000010000000000000BRABEVACNOR1117
012017112496ABEV3F      020AMBEV S/A   ON           R$  000000000206600000000020730000000002055000000000206500000000020550000000002055000000000207200116000000000000003273000000000006758829000000000000009999123100000010000000000000BRABEVACNOR1117
012017112462ABEV3T      030AMBEV S/A   ON        032R$  000000000208200000000020830000000002082000000000208200000000020830000000000000000000000000000002000000000000008000000000000016661243000000000000009999123100000010000000000000BRABEVACNOR1117
012017112462ABEV3T      030AMBEV S/A   ON        060R$  000000000209000000000020910000000002090000000000209000000000020910000000000000000000000000000002000000000000002500000000000005227387000000000000009999123100000010000000000000BRABEVACNOR1117
012017112478ABEVA70     070ABEV  FM    ON        000R$  000000000010700000000001070000000000107000000000010700000000001070000000000000000000000000000001000000000000010000000000000001070000000000000199202018011500000010000000000000BRABEVACNOR1115
012017112478ABEVA80     070ABEVE       ON        000R$  000000000006100000000000610000000000061000000000006100000000000610000000000000000000000000000001000000000000004400000000000000268400000000000206702018011500000010000000000000BRABEVACNOR1117
012017112478ABEVA81     070ABEVE       ON        000R$  000000000003100000000000310000000000031000000000003100000000000310000000000000000000000000000001000000000000008800000000000000272800000000000211702018011500000010000000000000BRABEVACNOR1117
012017112478ABEVD74     070ABEVE       ON        000R$  000000000004500000000000450000000000045000000000004500000000000450000000000000000000000000000017000000000000388500000000000017482500000000000220902018041600000010000000000000BRABEVACNOR1116
012017112478ABEVD94     070ABEVE       ON        000R$  000000000002500000000000300000000000017000000000002300000000000300000000000000000000000000000017000000000000388500000000000009100000000000000240902018041600000010000000000000BRABEVACNOR1117
012017112478ABEVL20     070ABEV        ON        000R$  000000000005900000000000630000000000058000000000006000000000000610000000000056000000000000000012000000000000100000000000000006060000000000000202902017121800000010000000000000BRABEVACNOR1117
012017112478ABEVL49     070ABEV  FM    ON        000R$  000000000010500000000001100000000000105000000000010800000000001080000000000011000000000000000005000000000000050000000000000005420000000000000197902017121800000010000000000000BRABEVACNOR1116
012017112478ABEVL50     070ABEV  FM    ON        000R$  000000000003400000000000360000000000031000000000003300000000000340000000000026000000000003500006000000000000024200000000000000814900000000000207902017121800000010000000000000BRABEVACNOR1117
012017112478ABEVL51     070ABEV  FM    ON        000R$  000000000000700000000000070000000000007000000000000700000000000070000000000005000000000001500001000000000000001000000000000000007000000000000217902017121800000010000000000000BRABEVACNOR1116
012017112478ABEVL61     070ABEVE       ON        000R$  000000000002200000000000220000000000022000000000002200000000000220000000000000000000000003000001000000000000001000000000000000022000000000000210402017121800000010000000000000BRABEVACNOR1117
012017112478ABEVL70     070ABEVE       ON        000R$  000000000005200000000000520000000000047000000000004700000000000480000000000000000000000000000004000000000000407000000000000019504000000000000205402017121800000010000000000000BRABEVACNOR1114
012017112482ABEVP82     080ABEVE       ON        000R$  000000000004500000000000500000000000035000000000004200000000000500000000000000000000000000000017000000000000388500000000000016700000000000000200902018041600000010000000000000BRABEVACNOR1116
012017112482ABEVP88     080ABEVE       ON        000R$  000000000001500000000000150000000000013000000000001400000000000150000000000000000000000000000019000000000000391500000000000005702500000000000180902018041600000010000000000000BRABEVACNOR1117
012017112482ABEVX49     080ABEVE  FM   ON        000R$  000000000000900000000000090000000000006000000000000600000000000060000000000000000000000000000002000000000000001400000000000000009600000000000197902017121800000010000000000000BRABEVACNOR1116
012017112482ABEVX50     080ABEVE  FM   ON        000R$  000000000003700000000000400000000000037000000000003800000000000400000000000005000000000015000002000000000000019200000000000000740400000000000207902017121800000010000000000000BRABEVACNOR1117
012017112482ABEVX51     080ABEVE  FM   ON        000R$  000000000010800000000001080000000000108000000000010800000000001080000000000000000000000013000001000000000000010000000000000001080000000000000217902017121800000010000000000000BRABEVACNOR1116
012017112482ABEVX78     080ABEVE       ON        000R$  000000000000200000000000020000000000002000000000000200000000000020000000000000000000000000000001000000000000010000000000000000020000000000000180402017121800000010000000000000BRABEVACNOR1116
012017112402ADHM3       010ADVANCED-DH ON           R$  000000000020600000000002060000000000200000000000020500000000002060000000000200000000000020600008000000000000012600000000000002586600000000000000009999123100000010000000000000BRADHMACNOR9101
012017112496ADHM3F      020ADVANCED-DH ON           R$  000000000019100000000002100000000000190000000000019000000000002100000000000190000000000021000003000000000000000076000000000000014508000000000000009999123100000010000000000000BRADHMACNOR9101
012017112412AEFI11      010FII AESAPAR CI           R$  000000001655000000000166500000000016405000000001658500000000166090000000016500000000001660900026000000000000000542000000000008989098000000000000009999123100000010000000000000BRAEFICTF002171
012017112402AELP3       010AES ELPA    ON           R$  000000000050600000000005070000000000505000000000050500000000005050000000000405000000000050500009000000000000007800000000000003939800000000000000009999123100000010000000000000BRAELPACNOR2124
012017112496AELP3F      020AES ELPA    ON           R$  000000000055000000000005500000000000520000000000053500000000005200000000000452000000000054900005000000000000000080000000000000042800000000000000009999123100000010000000000000BRAELPACNOR2124
012017112412AGCX11      010FII AG CAIXACI           R$  000000012599400000001265000000000125000000000012546800000001265000000000125300000000012650000041000000000000000265000000000033249276000000000000009999123100000010000000000000BRAGCXCTF003160
012017112402AGRO3       010BRASILAGRO  ON      NM   R$  000000000121400000000012140000000001198000000000120500000000012130000000001200000000000121300099000000000000025800000000000031091900000000000000009999123100000010000000000000BRAGROACNOR7107
012017112496AGRO3F      020BRASILAGRO  ON      NM   R$  000000000120700000000012070000000001207000000000120700000000012070000000001154000000000120500001000000000000000014000000000000016898000000000000009999123100000010000000000000BRAGROACNOR7107
012017112412ALMI11      010FII TORRE ALCI           R$  000000017000000000001720000000000168201000000017026500000001720000000000170005000000017200000040000000000000000132000000000022475107000000000000009999123100000010000000000000BRALMICTF003249
012017112402ALPA3       010ALPARGATAS  ON  EJ  N1   R$  000000000162700000000016500000000001540000000000158400000000015950000000001547000000000159600018000000000000003300000000000005230000000000000000009999123100000010000000000000BRALPAACNOR0223
012017112496ALPA3F      020ALPARGATAS  ON  EJ  N1   R$  000000000157700000000015770000000001577000000000157700000000015770000000001580000000000164900001000000000000000043000000000000067811000000000000009999123100000010000000000000BRALPAACNOR0223
012017112402ALPA4       010ALPARGATAS  PN  EJ  N1   R$  000000000175100000000017550000000001705000000000171900000000017200000000001710000000000172000633000000000001228700000000002113272800000000000000009999123100000010000000000000BRALPAACNPR7223
012017112496ALPA4F      020ALPARGATAS  PN  EJ  N1   R$  000000000173000000000017300000000001715000000000172500000000017290000000001710000000000177000008000000000000000212000000000000365708000000000000009999123100000010000000000000BRALPAACNPR7223
012017112462ALPA4T      030ALPARGATAS  PN  EJ  N1060R$  000000000173900000000017400000000001739000000000173900000000017400000000000000000000000000000004000000000001000000000000001739195200000000000000009999123100000010000000000000BRALPAACNPR7223
012017112402ALSC3       010ALIANSCE    ON      NM   R$  000000000172700000000017590000000001722000000000174300000000017590000000001736000000000175901091000000000000214800000000000374573900000000000000009999123100000010000000000000BRALSCACNOR0110
012017112496ALSC3F      020ALIANSCE    ON      NM   R$  000000000173500000000017500000000001728000000000173900000000017400000000001650000000000175000018000000000000000704000000000001224573000000000000009999123100000010000000000000BRALSCACNOR0110
012017112402ALUP11      010ALUPAR      UNT     N2   R$  000000000175000000000017640000000001740000000000175300000000017560000000001755000000000175602441000000000001003600000000001759495500000000000000009999123100000010000000000000BRALUPCDAM15106
012017112496ALUP11F     020ALUPAR      UNT     N2   R$  000000000173000000000017600000000001730000000000174600000000017500000000001740000000000176000030000000000000000948000000000001655401000000000000009999123100000010000000000000BRALUPCDAM15106
012017112402ALUP3       010ALUPAR      ON      N2   R$  000000000059100000000006100000000000591000000000060000000000006100000000000572000000000061300002000000000000000200000000000000120100000000000000009999123100000010000000000000BRALUPACNOR8106
012017112402ALUP4       010ALUPAR      PN      N2   R$  000000000057100000000006080000000000571000000000058900000000006080000000000573000000000060600002000000000000000400000000000000235800000000000000009999123100000010000000000000BRALUPACNPR5106
012017112402AMAR3       010LOJAS MARISAON      NM   R$  000000000070500000000007730000000000702000000000074400000000007730000000000771000000000077302543000000000001077600000000000801753300000000000000009999123100000010000000000000BRAMARACNOR4112
012017112496AMAR3F      020LOJAS MARISAON      NM   R$  000000000070800000000007700000000000708000000000074200000000007680000000000747000000000077000047000000000000001314000000000000975344000000000000009999123100000010000000000000BRAMARACNOR4112
012017112462AMAR3T      030LOJAS MARISAON      NM017R$  000000000076300000000007640000000000763000000000076300000000007640000000000000000000000000000002000000000000016600000000000012668581000000000000009999123100000010000000000000BRAMARACNOR4112
012017112462AMAR3T      030LOJAS MARISAON      NM027R$  000000000077200000000007730000000000772000000000077200000000007730000000000000000000000000000002000000000000010000000000000007729354000000000000009999123100000010000000000000BRAMARACNOR4112
012017112462AMAR3T      030LOJAS MARISAON      NM032R$  000000000077300000000007740000000000773000000000077300000000007740000000000000000000000000000002000000000000013000000000000010052449000000000000009999123100000010000000000000BRAMARACNOR4112
012017112496AMZO34F     020AMAZON      DRN          R$  000000018960600000001896060000000189606000000018960600000001896060000000184220000000000000000001000000000000000003000000000000568818000000000000009999123100000010000000000000BRAMZOBDR002101
012017112402ANIM3       010ANIMA       ON      NM   R$  000000000239000000000024850000000002390000000000243600000000024800000000002444000000000248000997000000000000298600000000000727578700000000000000009999123100000010000000000000BRANIMACNOR6104
012017112496ANIM3F      020ANIMA       ON      NM   R$  000000000254800000000025480000000002440000000000247100000000024980000000002436000000000249800014000000000000000602000000000001487969000000000000009999123100000010000000000000BRANIMACNOR6104
012017112478ANIMB26     070ANIM        ON      NM000R$  000000000001800000000000230000000000018000000000001900000000000230000000000000000000000000000003000000000000050000000000000000978000000000000260002018021900000010000000000000BRANIMACNOR6104
012017112478ANIMC56     070ANIM        ON      NM000R$  000000000000800000000000080000000000008000000000000800000000000080000000000000000000000000000002000000000000057700000000000000461600000000000265002018031900000010000000000000BRANIMACNOR6104
012017112482ANIMN71     080ANIME       ON      NM000R$  000000000003100000000000330000000000031000000000003200000000000330000000000000000000000000000003000000000000050000000000000001632700000000000212502018021900000010000000000000BRANIMACNOR6104
012017112482ANIMO21     080ANIME       ON      NM000R$  000000000004800000000000480000000000048000000000004800000000000480000000000000000000000000000002000000000000057700000000000002769600000000000210002018031900000010000000000000BRANIMACNOR6104
012017112402ARZZ3       010AREZZO CO   ON      NM   R$  000000000486600000000049410000000004769000000000482600000000048000000000004800000000000480101261000000000000278500000000001344063400000000000000009999123100000010000000000000BRARZZACNOR3126
012017112496ARZZ3F      020AREZZO CO   ON      NM   R$  000000000491600000000049470000000004786000000000491200000000047860000000004760000000000533200018000000000000000484000000000002377748000000000000009999123100000010000000000000BRARZZACNOR3126
012017112402ATOM3       010ATOMPAR     ON           R$  000000000046000000000005050000000000396000000000045600000000003980000000000398000000000039902781000000000002843900000000001298790800000000000000009999123100000010000000000000BRATOMACNOR1102
012017112496ATOM3F      020ATOMPAR     ON           R$  000000000044700000000005000000000000411000000000046500000000004120000000000401000000000045900051000000000000001875000000000000873284000000000000009999123100000010000000000000BRATOMACNOR1102
012017112402AZEV4       010AZEVEDO     PN           R$  000000000010700000000001080000000000107000000000010700000000001080000000000103000000000010700002000000000000001000000000000000107800000000000000009999123100000010000000000000BRAZEVACNPR7116
012017112462AZEV4T      030AZEVEDO     PN        600R$  000000000012200000000001230000000000122000000000012200000000001230000000000000000000000000000002000000000000001000000000000000122892000000000000009999123100000010000000000000BRAZEVACNPR7116
012017112402AZUL4       010AZUL        PN      N2   R$  000000000280400000000028200000000002776000000000279500000000028090000000002781000000000280901521000000000000287000000000000802403800000000000000009999123100000010000000000000BRAZULACNPR4100
012017112496AZUL4F      020AZUL        PN      N2   R$  000000000272800000000028100000000002728000000000278800000000027950000000002727000000000279500003000000000000000006000000000000016733000000000000009999123100000010000000000000BRAZULACNPR4100
012017112402BAUH4       010EXCELSIOR   PN           R$  000000000132900000000013290000000001220000000000129700000000012200000000001216000000000125000013000000000000005200000000000006748400000000000000009999123100000010000000000000BRBAUHACNPR3112
012017112402BBAS3       010BRASIL      ON  EJ  NM   R$  000000000327400000000032750000000003231000000000325500000000032600000000003260000000000326113956000000000005439100000000017708721100000000000000009999123100000010000000000000BRBBASACNOR3272
012017112496BBAS3F      020BRASIL      ON  EJ  NM   R$  000000000327000000000032710000000003235000000000325600000000032520000000003252000000000325600302000000000000006162000000000020066118000000000000009999123100000010000000000000BRBBASACNOR3272
012017112462BBAS3T      030BRASIL      ON  EJ  NM017R$  000000000326500000000032720000000003255000000000326300000000032720000000000000000000000000000006000000000000008900000000000029048755000000000000009999123100000010000000000000BRBBASACNOR3272
012017112462BBAS3T      030BRASIL      ON  EJ  NM032R$  000000000327600000000032880000000003260000000000327000000000032880000000000000000000000000000008000000000000003400000000000011119394000000000000009999123100000010000000000000BRBBASACNOR3272
012017112462BBAS3T      030BRASIL      ON  EJ  NM060R$  000000000329200000000032930000000003291000000000329200000000032920000000000000000000000000000010000000000000700000000000002304538192000000000000009999123100000010000000000000BRBBASACNOR3272
012017112462BBAS3T      030BRASIL      ON  EJ  NM180R$  000000000340800000000034090000000003408000000000340800000000034090000000000000000000000000000002000000000000000100000000000000340820000000000000009999123100000010000000000000BRBBASACNOR3272
012017112478BBASA1      070BBASE    /EJON      NM000R$  000000000008800000000001040000000000086000000000008800000000001040000000000000000000000000000135000000000000062000000000000005479000000000000346302018011500000010000000000000BRBBASACNOR3270
012017112478BBASA12     070BBAS    /EJ ON      NM000R$  000000000019900000000001990000000000199000000000019900000000001990000000000000000000000000000001000000000000000700000000000000139300000000000323802018011500000010000000000000BRBBASACNOR3271
012017112478BBASA13     070BBAS    /EJ ON      NM000R$  000000000014800000000001480000000000148000000000014800000000001480000000000000000000000026600004000000000000003000000000000000444000000000000333802018011500000010000000000000BRBBASACNOR3271
012017112478BBASA17     070BBAS    /EJ ON      NM000R$  000000000003900000000000390000000000039000000000003900000000000390000000000030000000000000000001000000000000001000000000000000039000000000000373802018011500000010000000000000BRBBASACNOR3271
012017112478BBASA18     070BBAS    /EJ ON      NM000R$  000000000002900000000000290000000000029000000000002900000000000290000000000000000000000000000001000000000000003000000000000000087000000000000383802018011500000010000000000000BRBBASACNOR3271
012017112478BBASA2      070BBASE    /EJON      NM000R$  000000000005500000000000550000000000053000000000005400000000000530000000000053000000000021400005000000000000001000000000000000054800000000000361302018011500000010000000000000BRBBASACNOR3270
012017112478BBASA33     070BBAS  FM/EJ ON      NM000R$  000000000016600000000001720000000000160000000000016900000000001700000000000000000000000000000011000000000000516100000000000087488800000000000328802018011500000010000000000000BRBBASACNOR3271
012017112478BBASA34     070BBAS    /EJ ON      NM000R$  000000000012500000000001260000000000107000000000012300000000001260000000000000000000000000000007000000000000345100000000000042489600000000000338802018011500000010000000000000BRBBASACNOR3271
012017112478BBASA37     070BBAS    /EJ ON      NM000R$  000000000004600000000000460000000000046000000000004600000000000460000000000000000000000000000003000000000000001200000000000000055200000000000368802018011500000010000000000000BRBBASACNOR3271
012017112478BBASA38     070BBAS    /EJ ON      NM000R$  000000000003600000000000360000000000036000000000003600000000000360000000000000000000000000000023000000000000002300000000000000082800000000000378802018011500000010000000000000BRBBASACNOR3271
012017112478BBASA5      070BBAS  FM/EJ ON      NM000R$  000000000007500000000000840000000000075000000000007500000000000840000000000061000000000019800068000000000000063300000000000004768300000000000353802018011500000010000000000000BRBBASACNOR3271
012017112478BBASA6      070BBAS    /EJ ON      NM000R$  000000000004900000000000620000000000048000000000005400000000000600000000000059000000000006001470000000000001182800000000000064294000000000000363802018011500000010000000000000BRBBASACNOR3271
012017112478BBASA75     070BBASE    /EJON      NM000R$  000000000008000000000000800000000000080000000000008000000000000800000000000000000000000000000001000000000000000300000000000000024000000000000351302018011500000010000000000000BRBBASACNOR3271
012017112478BBASA92     070BBAS  FM/EJ ON      NM000R$  000000000021600000000002260000000000204000000000021500000000002250000000000000000000000000000046000000000000077500000000000016731600000000000318802018011500000010000000000000BRBBASACNOR3271
012017112478BBASA94     070BBASE    /EJON      NM000R$  000000000010700000000001070000000000084000000000009300000000000840000000000004000000000014700002000000000000002400000000000000224600000000000341302018011500000010000000000000BRBBASACNOR3265
012017112478BBASB1      070BBAS    /EJ ON      NM000R$  000000000028100000000002810000000000281000000000028100000000002810000000000000000000000000000001000000000000001500000000000000421500000000000311102018021900000010000000000000BRBBASACNOR3266
012017112478BBASB15     070BBASE    /EJON      NM000R$  000000000014500000000001450000000000145000000000014500000000001450000000000000000000000000000001000000000000000800000000000000116000000000000343602018021900000010000000000000BRBBASACNOR3263
012017112478BBASB17     070BBASE    /EJON      NM000R$  000000000013000000000001300000000000130000000000013000000000001300000000000000000000000000000001000000000000006000000000000000780000000000000348602018021900000010000000000000BRBBASACNOR3265
012017112478BBASB2      070BBAS    /EJ ON      NM000R$  000000000026000000000002600000000000260000000000026000000000002600000000000000000000000000000001000000000000003000000000000000780000000000000326102018021900000010000000000000BRBBASACNOR3271
012017112478BBASB33     070BBAS    /EJ ON      NM000R$  000000000020000000000002000000000000200000000000020000000000002000000000000000000000000000000001000000000000000100000000000000020000000000000331102018021900000010000000000000BRBBASACNOR3270
012017112478BBASB63     070BBASE       ON      NM000R$  000000000020300000000002100000000000203000000000020900000000002100000000000000000000000000000002000000000000680100000000000142820300000000000333602018021900000010000000000000BRBBASACNOR3272
012017112478BBASB65     070BBAS    /EJ ON      NM000R$  000000000011300000000001130000000000113000000000011300000000001130000000000000000000000000000001000000000000001000000000000000113000000000000356102018021900000010000000000000BRBBASACNOR3271
012017112478BBASF69     070BBASE    /EJON      NM000R$  000000000015800000000001590000000000158000000000015800000000001590000000000000000000000000000002000000000000100000000000000015850000000000000385202018061800000010000000000000BRBBASACNOR3265
012017112478BBASF72     070BBASE    /EJON      NM000R$  000000000033900000000003390000000000339000000000033900000000003390000000000105000000000064500004000000000000005700000000000001932300000000000325202018061800000010000000000000BRBBASACNOR3272
012017112478BBASL12     070BBASE    /EJON      NM000R$  000000000006400000000000640000000000060000000000006300000000000600000000000000000000000009000002000000000000006100000000000000390000000000000341302017121800000010000000000000BRBBASACNOR3271
012017112478BBASL13     070BBASE    /EJON      NM000R$  000000000003200000000000320000000000032000000000003200000000000320000000000002000000000020000003000000000000002000000000000000064000000000000356302017121800000010000000000000BRBBASACNOR3271
012017112478BBASL14     070BBASE    /EJON      NM000R$  000000000008600000000000860000000000075000000000007600000000000860000000000074000000000010100014000000000000042800000000000003274600000000000336302017121800000010000000000000BRBBASACNOR3265
012017112478BBASL20     070BBAS  FM/EJ ON      NM000R$  000000000016500000000001800000000000152000000000016600000000001770000000000001000000000000000024000000000000037400000000000006222600000000000318802017121800000010000000000000BRBBASACNOR3267
012017112478BBASL21     070BBASE    /EJON      NM000R$  000000000027900000000002790000000000251000000000027400000000002510000000000000000000000000000004000000000000004500000000000001235900000000000306302017121800000010000000000000BRBBASACNOR3268
012017112478BBASL32     070BBAS    /EJ ON      NM000R$  000000000018000000000002000000000000180000000000018700000000002000000000000165000000000028900008000000000000006600000000000001235600000000000313802017121800000010000000000000BRBBASACNOR3265
012017112478BBASL33     070BBAS    /EJ ON      NM000R$  000000000014200000000001460000000000124000000000013700000000001360000000000136000000000015000072000000000000097500000000000013396100000000000323802017121800000010000000000000BRBBASACNOR3266
012017112478BBASL34     070BBAS    /EJ ON      NM000R$  000000000009900000000001000000000000080000000000008900000000000930000000000088000000000009800157000000000000278400000000000025025600000000000333802017121800000010000000000000BRBBASACNOR3267
012017112478BBASL35     070BBAS    /EJ ON      NM000R$  000000000003700000000000380000000000031000000000003400000000000380000000000035000000000003800160000000000000168200000000000005796000000000000353802017121800000010000000000000BRBBASACNOR3269
012017112478BBASL36     070BBAS  FM/EJ ON      NM000R$  000000000002900000000000290000000000023000000000002600000000000290000000000028000000000003300042000000000000021300000000000000572600000000000358802017121800000010000000000000BRBBASACNOR3271
012017112478BBASL37     070BBAS    /EJ ON      NM000R$  000000000002100000000000250000000000017000000000001900000000000250000000000018000000000002500119000000000003735500000000000071611700000000000363802017121800000010000000000000BRBBASACNOR3267
012017112478BBASL38     070BBAS    /EJ ON      NM000R$  000000000001500000000000150000000000015000000000001500000000000150000000000010000000000001500004000000000000001100000000000000016500000000000373802017121800000010000000000000BRBBASACNOR3267
012017112478BBASL39     070BBAS    /EJ ON      NM000R$  000000000000600000000000090000000000005000000000000700000000000090000000000000000000000001200009000000000007508000000000000053720000000000000383802017121800000010000000000000BRBBASACNOR3266
012017112478BBASL4      070BBAS  FM/EJ ON      NM000R$  000000000007200000000000820000000000063000000000007100000000000800000000000080000000000008100077000000000000060000000000000004307000000000000338802017121800000010000000000000BRBBASACNOR3265
012017112478BBASL40     070BBAS    /EJ ON      NM000R$  000000000000400000000000040000000000004000000000000400000000000040000000000003000000000004000002000000000000004200000000000000016800000000000393802017121800000010000000000000BRBBASACNOR3267
012017112478BBASL48     070BBAS    /EJ ON      NM000R$  000000000000700000000000080000000000007000000000000700000000000080000000000007000000000000000002000000000000006500000000000000051500000000000378802017121800000010000000000000BRBBASACNOR3271
012017112478BBASL5      070BBAS  FM/EJ ON      NM000R$  000000000004400000000000500000000000039000000000004400000000000480000000000045000000000005100210000000000000537300000000000024170700000000000348802017121800000010000000000000BRBBASACNOR3267
012017112478BBASL6      070BBASE    /EJON      NM000R$  000000000012600000000001340000000000115000000000012600000000001340000000000120000000000000000007000000000000012500000000000001577800000000000326302017121800000010000000000000BRBBASACNOR3268
012017112478BBASL73     070BBAS  FM/EJ ON      NM000R$  000000000011400000000001220000000000101000000000011200000000001180000000000099000000000000000072000000000000228400000000000025727800000000000328802017121800000010000000000000BRBBASACNOR3271
012017112478BBASL75     070BBASE    /EJON      NM000R$  000000000003800000000000400000000000038000000000003900000000000400000000000001000000000004600003000000000000001100000000000000043800000000000351302017121800000010000000000000BRBBASACNOR3265
012017112478BBASL77     070BBAS    /EJ ON      NM000R$  000000000001400000000000180000000000012000000000001600000000000170000000000012000000000002400095000000000000049500000000000000805800000000000368802017121800000010000000000000BRBBASACNOR3271
012017112478BBASL90     070BBAS    /EJ ON      NM000R$  000000000000500000000000050000000000005000000000000500000000000050000000000000000000000000000004000000000003700100000000000018500500000000000403802017121800000010000000000000BRBBASACNOR3271
012017112478BBASL92     070BBASE    /EJON      NM000R$  000000000018300000000001840000000000167000000000018000000000001840000000000000000000000000000014000000000000037100000000000006688600000000000316302017121800000010000000000000BRBBASACNOR3266
012017112478BBASL93     070BBASE    /EJON      NM000R$  000000000009400000000001050000000000094000000000009900000000001050000000000078000000000030000004000000000000062000000000000006169000000000000331302017121800000010000000000000BRBBASACNOR3271
012017112478BBASL94     070BBAS    /EJ ON      NM000R$  000000000005600000000000600000000000056000000000005900000000000600000000000001000000000006200003000000000000026000000000000001556000000000000343802017121800000010000000000000BRBBASACNOR3271
012017112478BBASL99     070BBASE    /EJON      NM000R$  000000000000400000000000040000000000004000000000000400000000000040000000000002000000000000900001000000000000005000000000000000020000000000000391302017121800000010000000000000BRBBASACNOR3266
012017112482BBASM3      080BBASE    /EJON      NM000R$  000000000005800000000000590000000000056000000000005600000000000560000000000000000000000005900205000000000000672100000000000038109600000000000298802018011500000010000000000000BRBBASACNOR3271
012017112482BBASM32     080BBASE    /EJON      NM000R$  000000000010900000000001090000000000108000000000010800000000001080000000000095000000000000000010000000000000007300000000000000793400000000000316302018011500000010000000000000BRBBASACNOR3267
012017112482BBASM33     080BBASE  FM/EJON      NM000R$  000000000015900000000001590000000000159000000000015900000000001590000000000000000000000000000001000000000000010000000000000001590000000000000328802018011500000010000000000000BRBBASACNOR3271
012017112482BBASM34     080BBASE  FM/EJON      NM000R$  000000000022400000000002240000000000222000000000022200000000002220000000000000000000000000000002000000000000003100000000000000688400000000000338802018011500000010000000000000BRBBASACNOR3271
012017112482BBASM60     080BBASE    /EJON      NM000R$  000000000005600000000000560000000000056000000000005600000000000560000000000000000000000000000001000000000000001000000000000000056000000000000296302018011500000010000000000000BRBBASACNOR3267
012017112482BBASM62     080BBASE    /EJON      NM000R$  000000000013000000000001300000000000130000000000013000000000001300000000000093000000000000000002000000000000000800000000000000104000000000000321302018011500000010000000000000BRBBASACNOR3271
012017112482BBASN32     080BBASE    /EJON      NM000R$  000000000015000000000001500000000000150000000000015000000000001500000000000000000000000000000001000000000000000100000000000000015000000000000316102018021900000010000000000000BRBBASACNOR3266
012017112482BBASN65     080BBASE    /EJON      NM000R$  000000000036000000000003600000000000358000000000035800000000003580000000000000000000000000000002000000000000004900000000000001754400000000000356102018021900000010000000000000BRBBASACNOR3271
012017112482BBASN9      080BBASE    /EJON      NM000R$  000000000005100000000000510000000000051000000000005100000000000510000000000000000000000000000001000000000000001000000000000000051000000000000281102018021900000010000000000000BRBBASACNOR3265
012017112482BBASV1      080BBASE    /EJON      NM000R$  000000000029500000000002950000000000295000000000029500000000002950000000000185000000000000000001000000000000000400000000000000118000000000000313102018101500000010000000000000BRBBASACNOR3271
012017112482BBASX11     080BBASE    /EJON      NM000R$  000000000006700000000000670000000000067000000000006700000000000670000000000012000000000000000001000000000000001000000000000000067000000000000311302017121800000010000000000000BRBBASACNOR3264
012017112482BBASX20     080BBASE  FM/EJON      NM000R$  000000000008300000000000910000000000079000000000008500000000000790000000000001000000000013500034000000000000083000000000000007135000000000000318802017121800000010000000000000BRBBASACNOR3267
012017112482BBASX21     080BBASE    /EJON      NM000R$  000000000004600000000000460000000000046000000000004600000000000460000000000000000000000000000002000000000000001000000000000000046000000000000306302017121800000010000000000000BRBBASACNOR3268
012017112482BBASX27     080BBASE    /EJON      NM000R$  000000000000500000000000050000000000005000000000000500000000000050000000000003000000000000800001000000000000010000000000000000050000000000000263802017121800000010000000000000BRBBASACNOR3265
012017112482BBASX3      080BBASE    /EJON      NM000R$  000000000001700000000000170000000000017000000000001700000000000170000000000001000000000003000001000000000000001700000000000000028900000000000288802017121800000010000000000000BRBBASACNOR3261
012017112482BBASX31     080BBASE    /EJON      NM000R$  000000000004100000000000430000000000039000000000004100000000000390000000000000000000000000000054000000000000026300000000000001086000000000000303802017121800000010000000000000BRBBASACNOR3267
012017112482BBASX32     080BBASE    /EJON      NM000R$  000000000006800000000000680000000000064000000000006600000000000640000000000024000000000007500017000000000000026000000000000001728000000000000313802017121800000010000000000000BRBBASACNOR3265
012017112482BBASX33     080BBASE    /EJON      NM000R$  000000000010300000000001100000000000100000000000010500000000001000000000000068000000000012200106000000000000140600000000000014886600000000000323802017121800000010000000000000BRBBASACNOR3266
012017112482BBASX36     080BBASE    /EJON      NM000R$  000000000034000000000003400000000000340000000000034000000000003400000000000000000000000000000001000000000000004900000000000001666000000000000358802017121800000010000000000000BRBBASACNOR3271
012017112482BBASX4      080BBASE  FM/EJON      NM000R$  000000000019000000000001970000000000183000000000018800000000001870000000000021000000000000000021000000000000040300000000000007611000000000000338802017121800000010000000000000BRBBASACNOR3265
012017112482BBASX58     080BBASE    /EJON      NM000R$  000000000001000000000000100000000000010000000000001000000000000100000000000005000000000001500001000000000000006000000000000000060000000000000278802017121800000010000000000000BRBBASACNOR3265
012017112482BBASX59     080BBASE    /EJON      NM000R$  000000000002600000000000260000000000021000000000002300000000000240000000000001000000000002400075000000000000030000000000000000708500000000000293802017121800000010000000000000BRBBASACNOR3271
012017112482BBASX60     080BBASE    /EJON      NM000R$  000000000003100000000000320000000000031000000000003100000000000320000000000000000000000003400023000000000000003300000000000000102600000000000298802017121800000010000000000000BRBBASACNOR3267
012017112482BBASX61     080BBASE  FM/EJON      NM000R$  000000000005100000000000510000000000049000000000004900000000000500000000000000000000000005200004000000000000001800000000000000089300000000000308802017121800000010000000000000BRBBASACNOR3271
012017112482BBASX70     080BBASE    /EJON      NM000R$  000000000003500000000000360000000000034000000000003500000000000340000000000019000000000000000024000000000000059000000000000002084000000000000301302017121800000010000000000000BRBBASACNOR3268
012017112482BBASX73     080BBASE  FM/EJON      NM000R$  000000000013000000000001300000000000125000000000012700000000001300000000000000000000000000000008000000000000012500000000000001589500000000000328802017121800000010000000000000BRBBASACNOR3271
012017112482BBASX8      080BBASE    /EJON      NM000R$  000000000050500000000005050000000000505000000000050500000000005050000000000266000000000000000002000000000000000600000000000000303000000000000376302017121800000010000000000000BRBBASACNOR3267
012017112482BBASX92     080BBASE    /EJON      NM000R$  000000000007500000000000750000000000068000000000007100000000000680000000000001000000000000000004000000000000011900000000000000845500000000000316302017121800000010000000000000BRBBASACNOR3266
012017112482BBASX93     080BBASE    /EJON      NM000R$  000000000014500000000001500000000000140000000000014500000000001400000000000098000000000000000010000000000000004200000000000000609400000000000331302017121800000010000000000000BRBBASACNOR3271
012017112402BBDC3       010BRADESCO    ON      N1   R$  000000000313000000000031460000000003100000000000311000000000031000000000003100000000000311103191000000000000718300000000002234568300000000000000009999123100000010000000000000BRBBDCACNOR1671
012017112496BBDC3F      020BRADESCO    ON      N1   R$  000000000310100000000031880000000003098000000000311400000000030980000000003098000000000318900067000000000000001812000000000005643228000000000000009999123100000010000000000000BRBBDCACNOR1671
012017112402BBDC4       010BRADESCO    PN      N1   R$  000000000337500000000033860000000003345000000000335300000000033450000000003345000000000335012800000000000004223700000000014163520700000000000000009999123100000010000000000000BRBBDCACNPR8671
012017112496BBDC4F      020BRADESCO    PN      N1   R$  000000000337500000000033750000000003340000000000335400000000033400000000003340000000000339000101000000000000002919000000000009793181000000000000009999123100000010000000000000BRBBDCACNPR8671
012017112462BBDC4T      030BRADESCO    PN      N1017R$  000000000336600000000033670000000003356000000000336300000000033570000000000000000000000000000004000000000000003000000000000010090193000000000000009999123100000010000000000000BRBBDCACNPR8671
012017112462BBDC4T      030BRADESCO    PN      N1060R$  000000000339600000000033970000000003396000000000339600000000033970000000000000000000000000000002000000000000001000000000000003396285000000000000009999123100000010000000000000BRBBDCACNPR8671
012017112478BBDCA32     070BBDC  FM    PN      N1000R$  000000000025000000000002500000000000241000000000024600000000002470000000000000000000000000000007000000000000019600000000000004824200000000000320402018011500000010000000000000BRBBDCACNPR8671
012017112478BBDCA35     070BBDCE       PN      N1000R$  000000000007700000000000890000000000077000000000007700000000000890000000000000000000000014600002000000000000145600000000000011218400000000000349702018011500000010000000000000BRBBDCACNPR8655
012017112478BBDCA37     070BBDC  FM    PN      N1000R$  000000000016600000000001660000000000161000000000016300000000001610000000000000000000000023600003000000000000007000000000000001142000000000000333802018011500000010000000000000BRBBDCACNPR8659
012017112478BBDCA38     070BBDC  FM    PN      N1000R$  000000000012100000000001210000000000118000000000012000000000001180000000000000000000000019000002000000000000001480000000000000178780000000000342902018011500000010000000000000BRBBDCACNPR8659
012017112478BBDCA7      070BBDC  FM    PN      N1000R$  000000000008500000000000850000000000085000000000008500000000000850000000000000000000000014300001000000000000003000000000000000255000000000000352202018011500000010000000000000BRBBDCACNPR8669
012017112478BBDCB56     070BBDC        PN      N1000R$  000000000008800000000000880000000000088000000000008800000000000880000000000000000000000000000001000000000000005000000000000000440000000000000366002018021900000010000000000000BRBBDCACNPR8671
012017112478BBDCB7      070BBDCE       PN      N1000R$  000000000014200000000001420000000000142000000000014200000000001420000000000000000000000000000001000000000000005000000000000000710000000000000349802018021900000010000000000000BRBBDCACNPR8655
012017112478BBDCB76     070BBDCE       PN      N1000R$  000000000010000000000001000000000000100000000000010000000000001000000000000000000000000000000001000000000000010000000000000001000000000000000359402018021900000010000000000000BRBBDCACNPR8668
012017112478BBDCC2      070BBDCE       ON      N1000R$  000000000011000000000001100000000000100000000000010000000000001000000000000000000000000000000002000000000000038100000000000003811000000000000337502018031900000010000000000000BRBBDCACNOR1671
012017112478BBDCL1      070BBDCE       PN      N1000R$  000000000059800000000005980000000000573000000000058800000000005730000000000500000000000062000005000000000000001600000000000000942000000000000280102017121800000010000000000000BRBBDCACNPR8657
012017112478BBDCL10     070BBDC        PN      N1000R$  000000000001800000000000180000000000014000000000001600000000000140000000000010000000000002500003000000000000004100000000000000066100000000000368702017121800000010000000000000BRBBDCACNPR8659
012017112478BBDCL12     070BBDCE       PN      N1000R$  000000000039500000000003950000000000390000000000039100000000003900000000000232000000000000000002000000000000001000000000000000391500000000000298302017121800000010000000000000BRBBDCACNPR8651
012017112478BBDCL19     070BBDC        PN      N1000R$  000000000012500000000001250000000000125000000000012500000000001250000000000000000000000000000002000000000000100000000000000012500000000000000332402017121800000010000000000000BRBBDCACNPR8661
012017112478BBDCL21     070BBDCE       PN      N1000R$  000000000007600000000000760000000000070000000000007100000000000700000000000055000000000007500069000000000000016360000000000001163110000000000343702017121800000010000000000000BRBBDCACNPR8652
012017112478BBDCL25     070BBDCE       PN      N1000R$  000000000005500000000000550000000000054000000000005400000000000540000000000052000000000012500002000000000000002000000000000000109000000000000348302017121800000010000000000000BRBBDCACNPR8652
012017112478BBDCL29     070BBDC        PN      N1000R$  000000000002000000000000200000000000017000000000001900000000000170000000000008000000000002000003000000000000005600000000000000110200000000000365802017121800000010000000000000BRBBDCACNPR8665
012017112478BBDCL30     070BBDCE       PN      N1000R$  000000000080800000000008080000000000788000000000079800000000007880000000000000000000000000000004000000000000002200000000000001755800000000000257402017121800000010000000000000BRBBDCACNPR8652
012017112478BBDCL35     070BBDCE       PN      N1000R$  000000000011200000000001150000000000109000000000011300000000001150000000000045000000000011300004000000000000005020000000000000568300000000000334602017121800000010000000000000BRBBDCACNPR8652
012017112478BBDCL37     070BBDCE       PN      N1000R$  000000000004400000000000440000000000041000000000004200000000000410000000000035000000000010000003000000000000001800000000000000075900000000000353302017121800000010000000000000BRBBDCACNPR8668
012017112478BBDCL38     070BBDC        PN      N1000R$  000000000000500000000000050000000000005000000000000500000000000050000000000004000000000000600022000000000000015300000000000000076500000000000383302017121800000010000000000000BRBBDCACNPR8665
012017112478BBDCL41     070BBDC        PN      N1000R$  000000000001200000000000120000000000012000000000001200000000000120000000000008000000000001200008000000000000004800000000000000057600000000000373302017121800000010000000000000BRBBDCACNPR8660
012017112478BBDCL48     070BBDCE       PN      N1000R$  000000000008800000000000940000000000087000000000008900000000000940000000000078000000000009400006000000000000009500000000000000845500000000000339202017121800000010000000000000BRBBDCACNPR8652
012017112478BBDCL5      070BBDC        PN      N1000R$  000000000022500000000002250000000000225000000000022500000000002250000000000000000000000000000001000000000000000500000000000000112500000000000318702017121800000010000000000000BRBBDCACNPR8659
012017112478BBDCL52     070BBDC  FM    PN      N1000R$  000000000004000000000000400000000000035000000000003700000000000350000000000020000000000004500068000000000000019100000000000000719900000000000355802017121800000010000000000000BRBBDCACNPR8669
012017112478BBDCL66     070BBDC  FM    PN      N1000R$  000000000015900000000001630000000000149000000000015500000000001500000000000000000000000000000017000000000000025290000000000003920870000000000327802017121800000010000000000000BRBBDCACNPR8661
012017112478BBDCL67     070BBDCE       PN      N1000R$  000000000014200000000001420000000000142000000000014200000000001420000000000118000000000000000001000000000000001000000000000000142000000000000330102017121800000010000000000000BRBBDCACNPR8652
012017112482BBDCM1      080BBDCE       PN      N1000R$  000000000001500000000000190000000000015000000000001600000000000170000000000015000000000002000016000000000000024010000000000000388190000000000283802018011500000010000000000000BRBBDCACNPR8659
012017112482BBDCM38     080BBDCE       PN      N1000R$  000000000016300000000001630000000000163000000000016300000000001630000000000120000000000000000001000000000000000700000000000000114100000000000342902018011500000010000000000000BRBBDCACNPR8659
012017112482BBDCN46     080BBDCE       PN      N1000R$  000000000012000000000001200000000000120000000000012000000000001200000000000000000000000000000001000000000000000100000000000000012000000000000326402018021900000010000000000000BRBBDCACNPR8671
012017112482BBDCO1      080BBDCE       ON      N1000R$  000000000012000000000001200000000000100000000000010000000000001000000000000000000000000000000002000000000000038100000000000003812000000000000300002018031900000010000000000000BRBBDCACNOR1671
012017112482BBDCX19     080BBDCE       PN      N1000R$  000000000008000000000000800000000000080000000000008000000000000800000000000000000000000000000002000000000000100000000000000008000000000000000332402017121800000010000000000000BRBBDCACNPR8661
012017112482BBDCX20     080BBDCE       PN      N1000R$  000000000003200000000000320000000000032000000000003200000000000320000000000000000000000000000003000000000000030000000000000000960000000000000314402017121800000010000000000000BRBBDCACNPR8664
012017112482BBDCX25     080BBDCE  FM   PN      N1000R$  000000000017200000000001760000000000168000000000017100000000001730000000000068000000000000000012000000000000016480000000000002834520000000000348302017121800000010000000000000BRBBDCACNPR8652
012017112482BBDCX35     080BBDCE       PN      N1000R$  000000000009700000000000970000000000094000000000009600000000000940000000000000000000000009800060000000000000010000000000000000963500000000000334602017121800000010000000000000BRBBDCACNPR8652
012017112482BBDCX38     080BBDCE       PN      N1000R$  000000000046500000000004650000000000460000000000046300000000004650000000000000000000000000000004000000000000001600000000000000741000000000000383302017121800000010000000000000BRBBDCACNPR8665
012017112482BBDCX48     080BBDCE  FM   PN      N1000R$  000000000011100000000001170000000000111000000000011400000000001170000000000078000000000000000006000000000000007360000000000000841220000000000339202017121800000010000000000000BRBBDCACNPR8652
012017112482BBDCX64     080BBDCE       PN      N1000R$  000000000002300000000000230000000000023000000000002300000000000230000000000000000000000000000003000000000000003000000000000000069000000000000309602017121800000010000000000000BRBBDCACNPR8662
012017112482BBDCX67     080BBDCE       PN      N1000R$  000000000007300000000000770000000000072000000000007300000000000770000000000000000000000020000060000000000000010500000000000000770500000000000330102017121800000010000000000000BRBBDCACNPR8652
012017112482BBDCX76     080BBDCE       PN      N1000R$  000000000006000000000000600000000000060000000000006000000000000600000000000000000000000000000001000000000000004000000000000000240000000000000325502017121800000010000000000000BRBBDCACNPR8659
012017112412BBFI11B     010FII BB PROGRCI      MB   R$  000000030000000000003000000000000292999000000029410200000002950000000000292500000000029500000060000000000000000422000000000124111216000000000000009999123100000010000000000000BRBBFICTF006248
012017112412BBPO11      010FII BB PRGIICI           R$  000000001490000000000151180000000014871000000001495200000000149000000000014900000000001493200149000000000000011577000000000173107867000000000000009999123100000010000000000000BRBBPOCTF003160
012017112412BBRC11      010FII BB CORP CI           R$  000000001434900000000143490000000014276000000001433400000000143470000000014300000000001434700030000000000000000885000000000012686089000000000000009999123100000010000000000000BRBBRCCTF004174
012017112402BBRK3       010BR BROKERS  ON      NM   R$  000000000010300000000001040000000000102000000000010200000000001030000000000102000000000010300143000000000000379100000000000039019800000000000000009999123100000010000000000000BRBBRKACNOR4111
012017112496BBRK3F      020BR BROKERS  ON      NM   R$  000000000011000000000001100000000000101000000000010100000000001010000000000103000000000011100002000000000000000077000000000000007804000000000000009999123100000010000000000000BRBBRKACNOR4111
012017112414BBSD11      010BB ETF SP DVCI           R$  000000000578700000000058130000000005787000000000580400000000058070000000000000000000000000000022000000000000001810000000000010506200000000000000009999123100000010000000000000BRBBSDCTF000100
012017112402BBSE3       010BBSEGURIDADEON      NM   R$  000000000274600000000027460000000002711000000000272000000000027150000000002715000000000272006678000000000001570900000000004273997400000000000000009999123100000010000000000000BRBBSEACNOR5109
012017112496BBSE3F      020BBSEGURIDADEON      NM   R$  000000000275000000000027500000000002715000000000272400000000027200000000002720000000000273000130000000000000002999000000000008169518000000000000009999123100000010000000000000BRBBSEACNOR5109
012017112462BBSE3T      030BBSEGURIDADEON      NM060R$  000000000274800000000027490000000002748000000000274800000000027490000000000000000000000000000002000000000000002000000000000005496340000000000000009999123100000010000000000000BRBBSEACNOR5109
012017112478BBSEA27     070BBSE  FM    ON      NM000R$  000000000013700000000001370000000000137000000000013700000000001370000000000000000000000000000001000000000000007000000000000000959000000000000270002018011500000010000000000000BRBBSEACNOR5109
012017112478BBSEA28     070BBSE  FM    ON      NM000R$  000000000008600000000000860000000000086000000000008600000000000860000000000010000000000000000001000000000000007000000000000000602000000000000280002018011500000010000000000000BRBBSEACNOR5109
012017112478BBSEA29     070BBSE  FM    ON      NM000R$  000000000004800000000000480000000000047000000000004700000000000470000000000000000000000004500002000000000000002700000000000000127200000000000290002018011500000010000000000000BRBBSEACNOR5109
012017112478BBSEA30     070BBSE  FM    ON      NM000R$  000000000002700000000000270000000000027000000000002700000000000270000000000000000000000005000001000000000000001000000000000000027000000000000300002018011500000010000000000000BRBBSEACNOR5109
012017112478BBSEA57     070BBSE        ON      NM000R$  000000000009800000000000980000000000098000000000009800000000000980000000000000000000000000000001000000000000000100000000000000009800000000000275002018011500000010000000000000BRBBSEACNOR5109
012017112478BBSEA58     070BBSE        ON      NM000R$  000000000006300000000000630000000000063000000000006300000000000630000000000000000000000000000001000000000000000100000000000000006300000000000285002018011500000010000000000000BRBBSEACNOR5109
012017112478BBSEB28     070BBSE        ON      NM000R$  000000000010100000000001010000000000101000000000010100000000001010000000000000000000000000000001000000000000000400000000000000040400000000000283602018021900000010000000000000BRBBSEACNOR5109
012017112478BBSEB29     070BBSE        ON      NM000R$  000000000006700000000000670000000000067000000000006700000000000670000000000000000000000000000001000000000000002000000000000000134000000000000293602018021900000010000000000000BRBBSEACNOR5109
012017112478BBSEL17     070BBSE  FM    ON      NM000R$  000000000005700000000000570000000000045000000000004900000000000450000000000000000000000006800005000000000000009000000000000000441000000000000278602017121800000010000000000000BRBBSEACNOR5109
012017112478BBSEL28     070BBSE        ON      NM000R$  000000000003100000000000310000000000031000000000003100000000000310000000000000000000000003700001000000000000001600000000000000049600000000000283602017121800000010000000000000BRBBSEACNOR5109
012017112478BBSEL30     070BBSE        ON      NM000R$  000000000000500000000000060000000000005000000000000500000000000060000000000003000000000000600002000000000000016000000000000000086000000000000303602017121800000010000000000000BRBBSEACNOR5109
012017112478BBSEL56     070BBSE  FM    ON      NM000R$  000000000011000000000001100000000000099000000000010900000000000990000000000000000000000000000004000000000000007400000000000000809600000000000268602017121800000010000000000000BRBBSEACNOR5109
012017112478BBSEL58     070BBSE  FM    ON      NM000R$  000000000002700000000000270000000000020000000000002400000000000200000000000000000000000002700006000000000000030400000000000000739800000000000288602017121800000010000000000000BRBBSEACNOR5109
012017112478BBSEL59     070BBSE  FM    ON      NM000R$  000000000001000000000000100000000000008000000000000900000000000090000000000004000000000001000004000000000000022100000000000000217500000000000298602017121800000010000000000000BRBBSEACNOR5109
012017112478BBSEL97     070BBSEE       ON      NM000R$  000000000006000000000000600000000000058000000000005800000000000600000000000005000000000000000003000000000000006000000000000000352600000000000276102017121800000010000000000000BRBBSEACNOR5109
012017112482BBSEM28     080BBSEE  FM   ON      NM000R$  000000000012900000000001290000000000129000000000012900000000001290000000000000000000000000000001000000000000007000000000000000903000000000000280002018011500000010000000000000BRBBSEACNOR5109
012017112482BBSEM29     080BBSEE  FM   ON      NM000R$  000000000019500000000001950000000000192000000000019200000000001920000000000139000000000000000002000000000000007600000000000001461000000000000290002018011500000010000000000000BRBBSEACNOR5109
012017112482BBSEN69     080BBSEE       ON      NM000R$  000000000022000000000002200000000000220000000000022000000000002200000000000000000000000000000001000000000000000500000000000000110000000000000291102018021900000010000000000000BRBBSEACNOR5109
012017112482BBSEX1      080BBSEE       ON      NM000R$  000000000027500000000002800000000000275000000000027700000000002800000000000000000000000000000002000000000000001100000000000000305000000000000301102017121800000010000000000000BRBBSEACNOR5108
012017112482BBSEX56     080BBSEE  FM   ON      NM000R$  000000000005400000000000550000000000054000000000005400000000000550000000000012000000000000000002000000000000010500000000000000577000000000000268602017121800000010000000000000BRBBSEACNOR5109
012017112482BBSEX58     080BBSEE  FM   ON      NM000R$  000000000017100000000001710000000000165000000000016800000000001650000000000000000000000000000002000000000000014000000000000002352000000000000288602017121800000010000000000000BRBBSEACNOR5109
012017112482BBSEX87     080BBSEE       ON      NM000R$  000000000006200000000000620000000000062000000000006200000000000620000000000002000000000000000001000000000000001500000000000000093000000000000271102017121800000010000000000000BRBBSEACNOR5109
012017112412BBVJ11      010FII C JARDIMCI           R$  000000000599900000000060000000000005999000000000599900000000060000000000005860000000000600000005000000000000000040000000000000239980000000000000009999123100000010000000000000BRBBVJCTF001183
012017112412BCFF11B     010FII BC FFII CI      MB   R$  000000000789800000000079000000000007809000000000788400000000078990000000007840000000000789900176000000000000022248000000000175406617000000000000009999123100000010000000000000BRBCFFCTF000193
012017112412BCIA11      010FII BCIA    CI           R$  000000001200000000000120000000000012000000000001200000000000120000000000012000000000001239900001000000000000000002000000000000024000000000000000009999123100000010000000000000BRBCIACTF005130
012017112412BCRI11      010FII BEES CRICI           R$  000000001049800000000104980000000010385000000001040500000000104000000000010396000000001040000193000000000000008107000000000084359298000000000000009999123100000010000000000000BRBCRICTF009130
012017112402BEEF3       010MINERVA     ON      NM   R$  000000000115700000000011580000000001133000000000113900000000011350000000001135000000000113801908000000000000458800000000000522717300000000000000009999123100000010000000000000BRBEEFACNOR6107
012017112496BEEF3F      020MINERVA     ON      NM   R$  000000000116500000000011650000000001134000000000114300000000011340000000001120000000000117400022000000000000000816000000000000932825000000000000009999123100000010000000000000BRBEEFACNOR6107
012017112478BEEFA74     070BEEFE       ON      NM000R$  000000000001000000000000100000000000010000000000001000000000000100000000000000000000000001500001000000000000100000000000000001000000000000000144902018011500000010000000000000BRBEEFACNOR6106
012017112482BEEFM40     080BEEFE       ON      NM000R$  000000000001000000000000100000000000010000000000001000000000000100000000000000000000000000000001000000000000100000000000000001000000000000000102402018011500000010000000000000BRBEEFACNOR6106
012017112482BEEFM71     080BEEFE       ON      NM000R$  000000000004000000000000400000000000040000000000004000000000000400000000000000000000000000000001000000000000100000000000000004000000000000000114902018011500000010000000000000BRBEEFACNOR6106
012017112402BEES3       010BANESTES    ON           R$  000000000036700000000003690000000000365000000000036500000000003680000000000367000000000036900011000000000000010800000000000003945100000000000000009999123100000010000000000000BRBEESACNOR9302
012017112496BEES3F      020BANESTES    ON           R$  000000000036500000000003950000000000365000000000039000000000003950000000000366000000000039400005000000000000000037000000000000014465000000000000009999123100000010000000000000BRBEESACNOR9302
012017112402BEES4       010BANESTES    PN           R$  000000000037300000000003730000000000373000000000037300000000003730000000000364000000000037400001000000000000000200000000000000074600000000000000009999123100000010000000000000BRBEESACNPR6227
012017112496BEES4F      020BANESTES    PN           R$  000000000037500000000003750000000000375000000000037500000000003750000000000375000000000041500001000000000000000002000000000000000750000000000000009999123100000010000000000000BRBEESACNPR6227
012017112496BERK34F     020BERKSHIRE   DRN          R$  000000006192700000000619270000000061927000000006192700000000619270000000060000000000000000000001000000000000000001000000000000061927000000000000009999123100000010000000000000BRBERKBDR002100
012017112402BGIP4       010BANESE      PN  EJ       R$  000000000337900000000033850000000003378000000000337900000000033850000000003370000000000340000007000000000000009700000000000032783900000000000000009999123100000010000000000000BRBGIPACNPR8193
012017112496BGIP4F      020BANESE      PN  EJ       R$  000000000270100000000034000000000002701000000000330000000000034000000000002701000000000340000003000000000000000007000000000000023101000000000000009999123100000010000000000000BRBGIPACNPR8193
012017112402BIOM3       010BIOMM       ON      MA   R$  000000000108300000000010830000000001080000000000108200000000010800000000001001000000000108000003000000000000002300000000000002490000000000000000009999123100000010000000000000BRBIOMACNOR2105
012017112402BMEB3       010MERC BRASIL ON           R$  000000000053000000000005350000000000525000000000053200000000005340000000000520000000000053500010000000000000013800000000000007354600000000000000009999123100000010000000000000BRBMEBACNOR8194
012017112402BMEB4       010MERC BRASIL PN           R$  000000000047900000000004790000000000470000000000047600000000004700000000000470000000000047700009000000000000029500000000000014066000000000000000009999123100000010000000000000BRBMEBACNPR5198
012017112402BMIN3       010MERC INVEST ON           R$  000000000749900000000074990000000007499000000000749900000000074990000000002500000000000750000001000000000000001600000000000011998400000000000000009999123100000010000000000000BRBMINACNOR4166
012017112496BMIN4F      020MERC INVEST PN           R$  000000000246000000000024610000000002400000000000243200000000024210000000002410000000000250000009000000000000000135000000000000328395000000000000009999123100000010000000000000BRBMINACNPR1167
012017112412BMLC11B     010FII BMBRC LCCI      MB   R$  000000000849100000000084930000000008355000000000838000000000083550000000008355000000000849100015000000000000000472000000000003955750000000000000009999123100000010000000000000BRBMLCCTF004169
012017112496BNBR3F      020NORD BRASIL ON           R$  000000000360000000000036000000000003600000000000360000000000036000000000003600000000000000000001000000000000000005000000000000018000000000000000009999123100000010000000000000BRBNBRACNOR8195
012017112412BNFS11      010FII BANRISULCI           R$  000000001240000000000124000000000012400000000001240000000000124000000000012310000000001240000002000000000000000010000000000000124000000000000000009999123100000010000000000000BRBNFSCTF000162
012017112402BOAC34      010BANK AMERICADRN          R$  000000000859900000000085990000000008599000000000859900000000085990000000000000000000000000000002000000000000000700000000000006019300000000000000009999123100000010000000000000BRBOACBDR004128
012017112402BOBR4       010BOMBRIL     PN           R$  000000000050000000000005110000000000492000000000049700000000005080000000000497000000000050800045000000000000093900000000000046757300000000000000009999123100000010000000000000BRBOBRACNPR3128
012017112496BOBR4F      020BOMBRIL     PN           R$  000000000047500000000004750000000000475000000000047500000000004750000000000475000000000051000002000000000000000055000000000000026125000000000000009999123100000010000000000000BRBOBRACNPR3128
012017112414BOVA11      010ISHARES BOVACI           R$  000000000719600000000072040000000007150000000000717400000000071630000000007155000000000716311167000000000001589010000000011401035810000000000000009999123100000010000000000000BRBOVACTF003103
012017112496BOVA11F     020ISHARES BOVACI           R$  000000000715700000000071990000000007157000000000718000000000071630000000007154000000000718100010000000000000000032000000000000229773000000000000009999123100000010000000000000BRBOVACTF003103
012017112478BOVAA31     070BOVAE       CI        000R$  000000000034400000000003440000000000344000000000034400000000003440000000000000000000000000000001000000000000000480000000000000165120000000000715002018011500000010000000000000BRBOVACTF003103
012017112478BOVAA72     070BOVA  FM    CI        000R$  000000000026200000000002620000000000252000000000026000000000002520000000000000000000000000000002000000000000004000000000000001043000000000000720002018011500000010000000000000BRBOVACTF003103
012017112478BOVAA73     070BOVA  FM    CI        000R$  000000000021000000000002110000000000205000000000020900000000002050000000000000000000000000000003000000000000005100000000000001067000000000000730002018011500000010000000000000BRBOVACTF003103
012017112478BOVAA74     070BOVA  FM    CI        000R$  000000000017100000000001710000000000155000000000016200000000001550000000000154000000000000000003000000000000005460000000000000889660000000000740002018011500000010000000000000BRBOVACTF003103
012017112478BOVAB74     070BOVA        CI        000R$  000000000029000000000002900000000000290000000000029000000000002900000000000000000000000000000001000000000000005500000000000001595000000000000740002018021900000010000000000000BRBOVACTF003103
012017112478BOVAB76     070BOVA        CI        000R$  000000000016000000000001600000000000160000000000016000000000001600000000000000000000000000000001000000000000005500000000000000880000000000000760002018021900000010000000000000BRBOVACTF003103
012017112478BOVAL69     070BOVA        CI        000R$  000000000035000000000003500000000000350000000000035000000000003500000000000000000000000000000002000000000000000200000000000000070000000000000690002017121800000010000000000000BRBOVACTF003103
012017112478BOVAL70     070BOVA  FM    CI        000R$  000000000030400000000003040000000000304000000000030400000000003040000000000000000000000000000001000000000000000500000000000000152000000000000700002017121800000010000000000000BRBOVACTF003103
012017112478BOVAL71     070BOVA  FM    CI        000R$  000000000023900000000002390000000000230000000000023300000000002300000000000000000000000000000002000000000000000900000000000000210150000000000710002017121800000010000000000000BRBOVACTF003103
012017112478BOVAL72     070BOVA  FM    CI        000R$  000000000018900000000001890000000000165000000000018800000000001650000000000150000000000000000004000000000000033200000000000006272400000000000720002017121800000010000000000000BRBOVACTF003103
012017112478BOVAL73     070BOVA  FM    CI        000R$  000000000013100000000001310000000000131000000000013100000000001310000000000000000000000000000002000000000000001000000000000000131000000000000730002017121800000010000000000000BRBOVACTF003103
012017112478BOVAL74     070BOVA  FM    CI        000R$  000000000010200000000001050000000000087000000000009200000000000870000000000087000000000008900005000000000000006700000000000000618100000000000740002017121800000010000000000000BRBOVACTF003103
012017112478BOVAL76     070BOVA        CI        000R$  000000000004600000000000460000000000046000000000004600000000000460000000000000000000000000000001000000000000004000000000000000184000000000000760002017121800000010000000000000BRBOVACTF003103
012017112482BOVAM57     080BOVAE       CI        000R$  000000000001000000000000120000000000009000000000001000000000000110000000000010000000000001100018000000000000056510000000000000609720000000000570002018011500000010000000000000BRBOVACTF003103
012017112482BOVAM70     080BOVAE  FM   CI        000R$  000000000015400000000001540000000000154000000000015400000000001540000000000000000000000000000001000000000000000100000000000000015400000000000700002018011500000010000000000000BRBOVACTF003103
012017112482BOVAM72     080BOVAE  FM   CI        000R$  000000000023300000000002330000000000230000000000023200000000002300000000000230000000000000000003000000000000006000000000000001392000000000000720002018011500000010000000000000BRBOVACTF003103
012017112482BOVAN36     080BOVAE       CI        000R$  000000000004000000000000400000000000040000000000004000000000000400000000000000000000000000000001000000000000005500000000000000220000000000000600002018021900000010000000000000BRBOVACTF003103
012017112482BOVAN69     080BOVAE       CI        000R$  000000000017000000000001700000000000170000000000017000000000001700000000000000000000000000000001000000000000005500000000000000935000000000000690002018021900000010000000000000BRBOVACTF003103
012017112482BOVAX64     080BOVAE       CI        000R$  000000000001500000000000150000000000010000000000001100000000000140000000000010000000000001500003000000000000001300000000000000014400000000000640002017121800000010000000000000BRBOVACTF003103
012017112482BOVAX68     080BOVAE       CI        000R$  000000000004700000000000470000000000047000000000004700000000000470000000000000000000000000000001000000000000001000000000000000047000000000000680002017121800000010000000000000BRBOVACTF003103
012017112482BOVAX70     080BOVAE  FM   CI        000R$  000000000010000000000001000000000000096000000000009600000000000960000000000000000000000021000003000000000000004700000000000000453200000000000700002017121800000010000000000000BRBOVACTF003103
012017112482BOVAX72     080BOVAE  FM   CI        000R$  000000000018000000000001850000000000171000000000017400000000001830000000000000000000000018500017000000000000045300000000000007899600000000000720002017121800000010000000000000BRBOVACTF003103
012017112482BOVAX73     080BOVAE       CI        000R$  000000000023400000000002360000000000234000000000023500000000002360000000000000000000000023700006000000000000001800000000000000423200000000000730002017121800000010000000000000BRBOVACTF003103
012017112414BOVV11      010IT NOW IBOV CI           R$  000000000742900000000074290000000007429000000000742900000000074290000000007390000000000742900005000000000000104200000000000774101800000000000000009999123100000010000000000000BRBOVVCTF009100
012017112402BPAC11      010BTGP BANCO  UNT          R$  000000000196000000000019950000000001925000000000195300000000019500000000001946000000000195000781000000000000260100000000000508172800000000000000009999123100000010000000000000BRBPACUNT006101
012017112496BPAC11F     020BTGP BANCO  UNT          R$  000000000196000000000019850000000001933000000000195000000000019450000000001940000000000194800040000000000000000461000000000000899216000000000000009999123100000010000000000000BRBPACUNT006101
012017112410BPAN2       010BANCO PAN   DIR PRE N1   R$  000000000000200000000000030000000000002000000000000200000000000030000000000003000000000000400040000000000000134700000000000000388700000000000000009999123100000010000000000000BRBPAND01PR6104
012017112496BPAN2F      020BANCO PAN   DIR PRE N1   R$  000000000000400000000000040000000000003000000000000300000000000030000000000001000000000000300003000000000000000046000000000000000151000000000000009999123100000010000000000000BRBPAND01PR6104
012017112402BPAN4       010BANCO PAN   PN      N1   R$  000000000019100000000001910000000000186000000000018700000000001880000000000186000000000018800043000000000000198300000000000037092900000000000000009999123100000010000000000000BRBPANACNPR1105
012017112496BPAN4F      020BANCO PAN   PN      N1   R$  000000000018800000000001900000000000188000000000018900000000001900000000000186000000000019000003000000000000000104000000000000019740000000000000009999123100000010000000000000BRBPANACNPR1105
012017112412BPFF11      010FII ABSOLUTOCI           R$  000000000988500000000098850000000009719000000000984800000000098620000000009800000000000986200066000000000000002590000000000025507388000000000000009999123100000010000000000000BRBPFFCTF002156
012017112402BPHA3       010BR PHARMA   ON      NM   R$  000000000045500000000004640000000000455000000000045800000000004550000000000455000000000046200018000000000000006400000000000002932300000000000000009999123100000010000000000000BRBPHAACNOR6105
012017112402BRAP3       010BRADESPAR   ON      N1   R$  000000000217100000000022200000000002171000000000220300000000021950000000002180000000000221000064000000000000018200000000000040099400000000000000009999123100000010000000000000BRBRAPACNOR5131
012017112496BRAP3F      020BRADESPAR   ON      N1   R$  000000000220000000000022190000000002172000000000218300000000022100000000002171000000000221000006000000000000000141000000000000307918000000000000009999123100000010000000000000BRBRAPACNOR5131
012017112402BRAP4       010BRADESPAR   PN      N1   R$  000000000257200000000025960000000002553000000000257300000000025910000000002572000000000259103721000000000001586500000000004083093100000000000000009999123100000010000000000000BRBRAPACNPR2131
012017112496BRAP4F      020BRADESPAR   PN      N1   R$  000000000255800000000025900000000002555000000000257000000000025780000000002566000000000257800118000000000000000854000000000002195311000000000000009999123100000010000000000000BRBRAPACNPR2131
012017112414BRAX11      010ISHARES BRAXCI           R$  000000000605800000000060630000000006050000000000605300000000060510000000000000000000000630000007000000000000000170000000000001029080000000000000009999123100000010000000000000BRBRAXCTF002100
012017112412BRCR11      010FII BC FUND CI           R$  000000001015500000000101860000000010102000000001015200000000101660000000010166000000001017400328000000000000023673000000000240335505000000000000009999123100000010000000000000BRBRCRCTF000183
012017112402BRFS3       010BRF SA      ON      NM   R$  000000000412600000000041400000000004035000000000406800000000040370000000004036000000000404007229000000000001415800000000005760211500000000000000009999123100000010000000000000BRBRFSACNOR8117
012017112496BRFS3F      020BRF SA      ON      NM   R$  000000000410200000000041240000000004000000000000406800000000040000000000004000000000000407900138000000000000002953000000000012014258000000000000009999123100000010000000000000BRBRFSACNOR8117
012017112462BRFS3T      030BRF SA      ON      NM032R$  000000000410000000000041010000000004100000000000410000000000041010000000000000000000000000000002000000000000001000000000000004100864000000000000009999123100000010000000000000BRBRFSACNOR8117
012017112462BRFS3T      030BRF SA      ON      NM060R$  000000000410000000000041010000000004100000000000410000000000041010000000000000000000000000000002000000000000002000000000000008200527000000000000009999123100000010000000000000BRBRFSACNOR8117
012017112462BRFS3T      030BRF SA      ON      NM090R$  000000000415800000000041590000000004103000000000411200000000041040000000000000000000000000000006000000000000012000000000000049344900000000000000009999123100000010000000000000BRBRFSACNOR8117
012017112462BRFS3T      030BRF SA      ON      NM122R$  000000000423100000000042320000000004231000000000423100000000042320000000000000000000000000000002000000000000001200000000000005078257000000000000009999123100000010000000000000BRBRFSACNOR8117
012017112478BRFSA11     070BRFS        ON      NM000R$  000000000014100000000001410000000000141000000000014100000000001410000000000000000000000000000001000000000000000400000000000000056400000000000415002018011500000010000000000000BRBRFSACNOR8117
012017112478BRFSA41     070BRFS  FM    ON      NM000R$  000000000019300000000001930000000000186000000000019100000000001890000000000000000000000000000003000000000000003100000000000000594900000000000410002018011500000010000000000000BRBRFSACNOR8117
012017112478BRFSA42     070BRFS  FM    ON      NM000R$  000000000014900000000001490000000000128000000000013900000000001280000000000000000000000000000005000000000000004000000000000000556000000000000420002018011500000010000000000000BRBRFSACNOR8117
012017112478BRFSA43     070BRFS  FM    ON      NM000R$  000000000010800000000001080000000000108000000000010800000000001080000000000000000000000000000001000000000000001000000000000000108000000000000430002018011500000010000000000000BRBRFSACNOR8117
012017112478BRFSA44     070BRFS  FM    ON      NM000R$  000000000007000000000000700000000000070000000000007000000000000700000000000000000000000000000001000000000000000200000000000000014000000000000440002018011500000010000000000000BRBRFSACNOR8117
012017112478BRFSA72     070BRFSE       ON      NM000R$  000000000012500000000001250000000000125000000000012500000000001250000000000112000000000013800001000000000000000800000000000000100000000000000422502018011500000010000000000000BRBRFSACNOR8117
012017112478BRFSB40     070BRFS        ON      NM000R$  000000000031500000000003150000000000315000000000031500000000003150000000000000000000000034700001000000000000000400000000000000126000000000000400002018021900000010000000000000BRBRFSACNOR8117
012017112478BRFSL12     070BRFS        ON      NM000R$  000000000006300000000000650000000000063000000000006400000000000650000000000000000000000000000002000000000000001400000000000000090200000000000425002017121800000010000000000000BRBRFSACNOR8117
012017112478BRFSL41     070BRFS  FM    ON      NM000R$  000000000013100000000001310000000000105000000000010900000000001050000000000000000000000000000004000000000000005700000000000000621500000000000410002017121800000010000000000000BRBRFSACNOR8117
012017112478BRFSL42     070BRFS  FM    ON      NM000R$  000000000008700000000000870000000000074000000000007400000000000750000000000000000000000000000003000000000000004100000000000000306200000000000420002017121800000010000000000000BRBRFSACNOR8117
012017112478BRFSL43     070BRFS  FM    ON      NM000R$  000000000005200000000000550000000000042000000000004800000000000420000000000000000000000006000008000000000000020000000000000000979500000000000430002017121800000010000000000000BRBRFSACNOR8117
012017112478BRFSL44     070BRFS  FM    ON      NM000R$  000000000003200000000000320000000000028000000000002900000000000280000000000024000000000008500002000000000000005000000000000000146000000000000440002017121800000010000000000000BRBRFSACNOR8117
012017112478BRFSL45     070BRFS  FM    ON      NM000R$  000000000001500000000000150000000000015000000000001500000000000150000000000010000000000002000001000000000000001000000000000000015000000000000450002017121800000010000000000000BRBRFSACNOR8117
012017112482BRFSM12     080BRFSE       ON      NM000R$  000000000026800000000002680000000000268000000000026800000000002680000000000000000000000000000001000000000000000300000000000000080400000000000425002018011500000010000000000000BRBRFSACNOR8117
012017112482BRFSM40     080BRFSE  FM   ON      NM000R$  000000000014100000000001410000000000141000000000014100000000001410000000000000000000000000000001000000000000000400000000000000056400000000000400002018011500000010000000000000BRBRFSACNOR8117
012017112482BRFSM42     080BRFSE  FM   ON      NM000R$  000000000020900000000002090000000000209000000000020900000000002090000000000135000000000000000001000000000000000500000000000000104500000000000420002018011500000010000000000000BRBRFSACNOR8117
012017112482BRFSM43     080BRFSE  FM   ON      NM000R$  000000000026600000000002660000000000266000000000026600000000002660000000000000000000000000000001000000000000002400000000000000638400000000000430002018011500000010000000000000BRBRFSACNOR8117
012017112482BRFSM82     080BRFSE       ON      NM000R$  000000000026100000000002610000000000261000000000026100000000002610000000000000000000000000000001000000000000000200000000000000052200000000000427502018011500000010000000000000BRBRFSACNOR8117
012017112482BRFSX39     080BRFSE       ON      NM000R$  000000000005800000000000660000000000057000000000006000000000000660000000000001000000000007000006000000000000016000000000000000971300000000000390002017121800000010000000000000BRBRFSACNOR8117
012017112482BRFSX40     080BRFSE  FM   ON      NM000R$  000000000007000000000001000000000000070000000000008300000000001000000000000100000000000013000026000000000000052200000000000004367800000000000400002017121800000010000000000000BRBRFSACNOR8117
012017112482BRFSX41     080BRFSE  FM   ON      NM000R$  000000000010500000000001150000000000105000000000010900000000001150000000000085000000000000000003000000000000003000000000000000327600000000000410002017121800000010000000000000BRBRFSACNOR8117
012017112482BRFSX42     080BRFSE  FM   ON      NM000R$  000000000016600000000001660000000000166000000000016600000000001660000000000001000000000000000001000000000000002400000000000000398400000000000420002017121800000010000000000000BRBRFSACNOR8117
012017112482BRFSX43     080BRFSE  FM   ON      NM000R$  000000000023100000000002390000000000231000000000023100000000002330000000000153000000000000000003000000000000003100000000000000718700000000000430002017121800000010000000000000BRBRFSACNOR8117
012017112482BRFSX68     080BRFSE       ON      NM000R$  000000000005000000000000500000000000049000000000004900000000000490000000000000000000000005500002000000000000001000000000000000049500000000000385002017121800000010000000000000BRBRFSACNOR8117
012017112402BRGE12      010ALFA CONSORCPNF          R$  000000000028000000000002800000000000255000000000027100000000002610000000000261000000000040000050000000000000006100000000000001655200000000000000009999123100000010000000000000BRBRGEACNPF8094
012017112496BRGE12F     020ALFA CONSORCPNF          R$  000000000024000000000002400000000000240000000000024000000000002400000000000200000000000030000001000000000000000070000000000000016800000000000000009999123100000010000000000000BRBRGEACNPF8094
012017112402BRIN3       010BR INSURANCEON      NM   R$  000000000137500000000013800000000001147000000000127000000000011840000000001184000000000119900381000000000000131200000000000166725200000000000000009999123100000010000000000000BRBRINACNOR3111
012017112496BRIN3F      020BR INSURANCEON      NM   R$  000000000136500000000013650000000001200000000000124800000000012250000000001210000000000125000014000000000000000318000000000000397136000000000000009999123100000010000000000000BRBRINACNOR3111
012017112462BRIN3T      030BR INSURANCEON      NM017R$  000000000137400000000013750000000001233000000000133100000000012340000000000000000000000000000006000000000000023300000000000031034071000000000000009999123100000010000000000000BRBRINACNOR3111
012017112462BRIN3T      030BR INSURANCEON      NM090R$  000000000134200000000013430000000001203000000000127600000000012040000000000000000000000000000006000000000000001200000000000001531918000000000000009999123100000010000000000000BRBRINACNOR3111
012017112402BRIV3       010ALFA INVEST ON           R$  000000000058000000000005800000000000580000000000058000000000005800000000000560000000000058000001000000000000000100000000000000058000000000000000009999123100000010000000000000BRBRIVACNOR6205
012017112402BRIV4       010ALFA INVEST PN           R$  000000000065300000000006530000000000637000000000064100000000006370000000000636000000000066500023000000000000125300000000000080392300000000000000009999123100000010000000000000BRBRIVACNPR3205
012017112402BRKM3       010BRASKEM     ON      N1   R$  000000000478900000000048000000000004789000000000478900000000048000000000004790000000000480000002000000000000040100000000000192040000000000000000009999123100000010000000000000BRBRKMACNOR1114
012017112496BRKM3F      020BRASKEM     ON      N1   R$  000000000470000000000047000000000004700000000000470000000000047000000000004610000000000513800001000000000000000001000000000000004700000000000000009999123100000010000000000000BRBRKMACNOR1114
012017112402BRKM5       010BRASKEM     PNA     N1   R$  000000000472700000000048800000000004683000000000481700000000048200000000004820000000000485006438000000000001241900000000005983254800000000000000009999123100000010000000000000BRBRKMACNPA4114
012017112496BRKM5F      020BRASKEM     PNA     N1   R$  000000000475800000000048880000000004652000000000481900000000048370000000004837000000000485000077000000000000002236000000000010775498000000000000009999123100000010000000000000BRBRKMACNPA4114
012017112462BRKM5T      030BRASKEM     PNA     N1017R$  000000000480900000000048660000000004809000000000483700000000048660000000000000000000000000000004000000000000001200000000000005804726000000000000009999123100000010000000000000BRBRKMACNPA4114
012017112462BRKM5T      030BRASKEM     PNA     N1032R$  000000000487700000000048780000000004877000000000487700000000048780000000000000000000000000000002000000000000000700000000000003414301000000000000009999123100000010000000000000BRBRKMACNPA4114
012017112462BRKM5T      030BRASKEM     PNA     N1045R$  000000000490600000000049070000000004906000000000490600000000049070000000000000000000000000000002000000000000000600000000000002943830000000000000009999123100000010000000000000BRBRKMACNPA4114
012017112462BRKM5T      030BRASKEM     PNA     N1090R$  000000000492300000000049240000000004923000000000492300000000049240000000000000000000000000000004000000000000002400000000000011816260000000000000009999123100000010000000000000BRBRKMACNPA4114
012017112478BRKMB51     070BRKM        PNA     N1000R$  000000000025000000000002500000000000250000000000025000000000002500000000000000000000000000000001000000000000003000000000000000750000000000000510002018021900000010000000000000BRBRKMACNPA4114
012017112478BRKMB52     070BRKM        PNA     N1000R$  000000000018100000000002000000000000180000000000019000000000001900000000000000000000000000000004000000000000026700000000000005074000000000000520002018021900000010000000000000BRBRKMACNPA4114
012017112478BRKMB56     070BRKM        PNA     N1000R$  000000000013000000000001300000000000130000000000013000000000001300000000000000000000000000000002000000000000003000000000000000390000000000000560002018021900000010000000000000BRBRKMACNPA4114
012017112478BRKMB57     070BRKM        PNA     N1000R$  000000000000200000000000080000000000002000000000000500000000000080000000000001000000000000000004000000000000026700000000000000138600000000000570002018021900000010000000000000BRBRKMACNPA4114
012017112478BRKML47     070BRKM  FM    PNA     N1000R$  000000000028000000000003190000000000280000000000030600000000003190000000000157000000000000000002000000000000000300000000000000091800000000000470002017121800000010000000000000BRBRKMACNPA4114
012017112478BRKML48     070BRKM  FM    PNA     N1000R$  000000000020500000000002520000000000205000000000021400000000002520000000000122000000000000000006000000000000002600000000000000558000000000000480002017121800000010000000000000BRBRKMACNPA4114
012017112478BRKML49     070BRKM  FM    PNA     N1000R$  000000000019900000000001990000000000199000000000019900000000001990000000000070000000000000000001000000000000001100000000000000218900000000000490002017121800000010000000000000BRBRKMACNPA4114
012017112478BRKML50     070BRKM  FM    PNA     N1000R$  000000000012600000000001600000000000126000000000014700000000001540000000000125000000000016000023000000000000015700000000000002318700000000000500002017121800000010000000000000BRBRKMACNPA4114
012017112478BRKML51     070BRKM  FM    PNA     N1000R$  000000000011500000000001200000000000115000000000011700000000001200000000000011000000000012100004000000000000002100000000000000246400000000000510002017121800000010000000000000BRBRKMACNPA4114
012017112478BRKML55     070BRKM        PNA     N1000R$  000000000002000000000000200000000000020000000000002000000000000200000000000000000000000002500002000000000000000200000000000000004000000000000550002017121800000010000000000000BRBRKMACNPA4114
012017112482BRKMN35     080BRKME       PNA     N1000R$  000000000005000000000000500000000000050000000000005000000000000500000000000000000000000000000001000000000000003000000000000000150000000000000350002018021900000010000000000000BRBRKMACNPA4114
012017112482BRKMN36     080BRKME       PNA     N1000R$  000000000006000000000000600000000000060000000000006000000000000600000000000000000000000000000002000000000000001000000000000000060000000000000360002018021900000010000000000000BRBRKMACNPA4114
012017112482BRKMN45     080BRKME       PNA     N1000R$  000000000017000000000001700000000000170000000000017000000000001700000000000000000000000000000001000000000000003000000000000000510000000000000450002018021900000010000000000000BRBRKMACNPA4114
012017112482BRKMN46     080BRKME       PNA     N1000R$  000000000023900000000002390000000000239000000000023900000000002390000000000000000000000000000001000000000000001000000000000000239000000000000460002018021900000010000000000000BRBRKMACNPA4114
012017112482BRKMN5      080BRKME       PNA     N1000R$  000000000003000000000000300000000000020000000000002500000000000250000000000000000000000000000004000000000000025700000000000000647500000000000355002018021900000010000000000000BRBRKMACNPA4114
012017112482BRKMN75     080BRKME       PNA     N1000R$  000000000022500000000002250000000000195000000000021000000000002070000000000000000000000000000003000000000000025700000000000005403900000000000457502018021900000010000000000000BRBRKMACNPA4114
012017112482BRKMO50     080BRKME       PNA     N1000R$  000000000047000000000004700000000000470000000000047000000000004700000000000000000000000000000003000000000000016800000000000007896000000000000500002018031900000010000000000000BRBRKMACNPA4114
012017112482BRKMO55     080BRKME       PNA     N1000R$  000000000076800000000007680000000000755000000000075900000000007550000000000000000000000000000003000000000000016800000000000012762000000000000550002018031900000010000000000000BRBRKMACNPA4114
012017112482BRKMX46     080BRKME  FM   PNA     N1000R$  000000000013300000000001330000000000133000000000013300000000001330000000000000000000000000000001000000000000000200000000000000026600000000000460002017121800000010000000000000BRBRKMACNPA4114
012017112482BRKMX49     080BRKME  FM   PNA     N1000R$  000000000023600000000002360000000000236000000000023600000000002360000000000000000000000000000001000000000000000400000000000000094400000000000490002017121800000010000000000000BRBRKMACNPA4114
012017112402BRML3       010BR MALLS PARON      NM   R$  000000000125100000000012830000000001240000000000128000000000012610000000001261000000000126211029000000000023436700000000029999479500000000000000009999123100000010000000000000BRBRMLACNOR9110
012017112496BRML3F      020BR MALLS PARON      NM   R$  000000000124800000000013000000000001240000000000127000000000013000000000001261000000000130000073000000000000002213000000000002812545000000000000009999123100000010000000000000BRBRMLACNOR9110
012017112462BRML3T      030BR MALLS PARON      NM032R$  000000000129000000000012910000000001290000000000129000000000012910000000000000000000000000000004000000000002261032000000002918164338000000000000009999123100000010000000000000BRBRMLACNOR9110
012017112478BRMLA13     070BRML  FM    ON      NM000R$  000000000004700000000000510000000000047000000000004900000000000510000000000000000000000006000002000000000000000200000000000000009800000000000130002018011500000010000000000000BRBRMLACNOR9110
012017112478BRMLL13     070BRML  FM    ON      NM000R$  000000000001400000000000200000000000014000000000001600000000000200000000000001000000000003000007000000000000015600000000000000265000000000000134902017121800000010000000000000BRBRMLACNOR9110
012017112478BRMLL15     070BRML  FM    ON      NM000R$  000000000003100000000000380000000000031000000000003700000000000380000000000001000000000004000004000000000000005300000000000000197100000000000129902017121800000010000000000000BRBRMLACNOR9109
012017112478BRMLL16     070BRML        ON      NM000R$  000000000001200000000000120000000000012000000000001200000000000120000000000005000000000001900001000000000000001000000000000000012000000000000138602017121800000010000000000000BRBRMLACNOR9109
012017112482BRMLM42     080BRMLE  FM   ON      NM000R$  000000000005000000000000500000000000050000000000005000000000000500000000000000000000000000000001000000000000000100000000000000005000000000000125002018011500000010000000000000BRBRMLACNOR9110
012017112402BRPR3       010BR PROPERT  ON      NM   R$  000000000109900000000011130000000001082000000000109400000000011000000000001100000000000110301238000000000000336200000000000367968700000000000000009999123100000010000000000000BRBRPRACNOR9117
012017112496BRPR3F      020BR PROPERT  ON      NM   R$  000000000111000000000011120000000001031000000000108400000000010810000000001081000000000111500037000000000000001176000000000001275011000000000000009999123100000010000000000000BRBRPRACNOR9117
012017112402BRSR3       010BANRISUL    ON  EJ  N1   R$  000000000269000000000026990000000002688000000000269000000000026990000000002455000000000269900008000000000000010900000000000029322600000000000000009999123100000010000000000000BRBRSRACNOR3151
012017112402BRSR5       010BANRISUL    PNA EJ  N1   R$  000000000269300000000026930000000002451000000000268900000000025510000000002550000000000269300004000000000000010300000000000027699500000000000000009999123100000010000000000000BRBRSRACNPA6155
012017112402BRSR6       010BANRISUL    PNB EJ  N1   R$  000000000146100000000014890000000001446000000000145900000000014890000000001480000000000148901484000000000000759600000000001108368300000000000000009999123100000010000000000000BRBRSRACNPB4154
012017112496BRSR6F      020BANRISUL    PNB EJ  N1   R$  000000000146600000000014670000000001450000000000145700000000014670000000001452000000000146700036000000000000001109000000000001616219000000000000009999123100000010000000000000BRBRSRACNPB4154
012017112462BRSR6T      030BANRISUL    PNB EJ  N1060R$  000000000148300000000014840000000001483000000000148300000000014840000000000000000000000000000002000000000000006200000000000009199997000000000000009999123100000010000000000000BRBRSRACNPB4154
012017112462BRSR6T      030BANRISUL    PNB EJ  N1090R$  000000000151300000000015140000000001513000000000151300000000015140000000000000000000000000000002000000000000010000000000000015134196000000000000009999123100000010000000000000BRBRSRACNPB4154
012017112478BRSRC20     070BRSR        PNB     N1000R$  000000000003800000000000390000000000038000000000003800000000000390000000000000000000000000000003000000000000600000000000000023120000000000000200002018031900000010000000000000BRBRSRACNPB4154
012017112482BRSRO11     080BRSRE       PNB     N1000R$  000000000002400000000000240000000000024000000000002400000000000240000000000000000000000000000002000000000000600000000000000014400000000000000110002018031900000010000000000000BRBRSRACNPB4154
012017112402BSAN33      010BANSANTANDERDR3          R$  000000000200000000000020000000000002000000000000200000000000020000000000002000000000000205000002000000000000001600000000000003200000000000000000009999123100000010000000000000BRBSANBDR002113
012017112402BSEV3       010BIOSEV      ON      NM   R$  000000000048500000000004860000000000484000000000048400000000004840000000000484000000000048500013000000000000005900000000000002860900000000000000009999123100000010000000000000BRBSEVACNOR3101
012017112496BSEV3F      020BIOSEV      ON      NM   R$  000000000046800000000004680000000000468000000000046800000000004680000000000468000000000050100001000000000000000030000000000000014040000000000000009999123100000010000000000000BRBSEVACNOR3101
012017112402BTOW3       010B2W DIGITAL ON      NM   R$  000000000177800000000018210000000001732000000000177000000000017420000000001742000000000174406269000000000002038300000000003608062200000000000000009999123100000010000000000000BRBTOWACNOR8109
012017112496BTOW3F      020B2W DIGITAL ON      NM   R$  000000000177000000000018190000000001740000000000178000000000017480000000001744000000000174800059000000000000002102000000000003742328000000000000009999123100000010000000000000BRBTOWACNOR8109
012017112462BTOW3T      030B2W DIGITAL ON      NM017R$  000000000176000000000017610000000001751000000000175800000000017520000000000000000000000000000004000000000000013500000000000023733242000000000000009999123100000010000000000000BRBTOWACNOR8109
012017112402BTTL3       010BATTISTELLA ON           R$  000000000047900000000004790000000000479000000000047900000000004790000000000440000000000047300001000000000000005000000000000002395000000000000000009999123100000010000000000000BRBTTLACNOR0108
012017112496BTTL3F      020BATTISTELLA ON           R$  000000000045100000000004510000000000451000000000045100000000004510000000000400000000000000000001000000000000000035000000000000015785000000000000009999123100000010000000000000BRBTTLACNOR0108
012017112402BTTL4       010BATTISTELLA PN           R$  000000000046900000000004690000000000469000000000046900000000004690000000000451000000000047000001000000000000005000000000000002345000000000000000009999123100000010000000000000BRBTTLACNPR7108
012017112402BVMF3       010BMFBOVESPA  ON  EJ  NM   R$  000000000244300000000024430000000002411000000000242300000000024300000000002428000000000243010275000000000003368700000000008163937300000000000000009999123100000010000000000000BRBVMFACNOR3143
012017112496BVMF3F      020BMFBOVESPA  ON  EJ  NM   R$  000000000244000000000024400000000002395000000000241700000000024140000000002414000000000246000166000000000000003157000000000007630628000000000000009999123100000010000000000000BRBVMFACNOR3143
012017112478BVMFA52     070BVMF  FM/EJ ON      NM000R$  000000000018700000000001940000000000185000000000018900000000001860000000000000000000000000000019000000000000068500000000000012955400000000000228402018011500000010000000000000BRBVMFACNOR3142
012017112478BVMFA53     070BVMF  FM/EJ ON      NM000R$  000000000012000000000001260000000000120000000000012200000000001230000000000000000000000000000010000000000000032600000000000003995100000000000238402018011500000010000000000000BRBVMFACNOR3142
012017112478BVMFA54     070BVMF  FM/EJ ON      NM000R$  000000000007300000000000730000000000073000000000007300000000000730000000000000000000000000000003000000000000004700000000000000343100000000000248402018011500000010000000000000BRBVMFACNOR3142
012017112478BVMFL24     070BVMFE    /EJON      NM000R$  000000000006800000000000840000000000062000000000006700000000000620000000000060000000000008200005000000000000006200000000000000415800000000000243402017121800000010000000000000BRBVMFACNOR3141
012017112478BVMFL25     070BVMF    /EJ ON      NM000R$  000000000003900000000000400000000000033000000000003500000000000370000000000010000000000003900019000000000000018400000000000000655800000000000250902017121800000010000000000000BRBVMFACNOR3142
012017112478BVMFL34     070BVMF    /EJ ON      NM000R$  000000000007700000000000790000000000076000000000007600000000000790000000000070000000000000000003000000000000192000000000000014728000000000000240902017121800000010000000000000BRBVMFACNOR3142
012017112478BVMFL52     070BVMF  FM/EJ ON      NM000R$  000000000021000000000002100000000000181000000000018400000000001810000000000000000000000000000006000000000000017900000000000003297400000000000225902017121800000010000000000000BRBVMFACNOR3142
012017112478BVMFL53     070BVMF  FM/EJ ON      NM000R$  000000000011700000000001200000000000106000000000011200000000001070000000000008000000000000000010000000000000041100000000000004622000000000000235902017121800000010000000000000BRBVMFACNOR3142
012017112478BVMFL54     070BVMF  FM/EJ ON      NM000R$  000000000005800000000000610000000000054000000000005700000000000610000000000050000000000000000007000000000000016900000000000000969700000000000245902017121800000010000000000000BRBVMFACNOR3142
012017112478BVMFL55     070BVMF  FM/EJ ON      NM000R$  000000000002700000000000270000000000021000000000002400000000000250000000000005000000000002500033000000000000017600000000000000425900000000000255902017121800000010000000000000BRBVMFACNOR3142
012017112478BVMFL56     070BVMF  FM/EJ ON      NM000R$  000000000000900000000000090000000000006000000000000800000000000060000000000000000000000000900015000000000000012900000000000000103700000000000265902017121800000010000000000000BRBVMFACNOR3142
012017112478BVMFL84     070BVMFE    /EJON      NM000R$  000000000003200000000000320000000000032000000000003200000000000320000000000000000000000000000001000000000000001400000000000000044800000000000248402017121800000010000000000000BRBVMFACNOR3143
